{
  "contractName": "BlockScheduler",
  "abi": [
    {
      "constant": false,
      "inputs": [
        {
          "name": "_toAddress",
          "type": "address"
        },
        {
          "name": "_callData",
          "type": "bytes"
        },
        {
          "name": "_uintArgs",
          "type": "uint256[8]"
        }
      ],
      "name": "schedule",
      "outputs": [
        {
          "name": "newRequest",
          "type": "address"
        }
      ],
      "payable": true,
      "stateMutability": "payable",
      "type": "function"
    },
    {
      "constant": true,
      "inputs": [],
      "name": "temporalUnit",
      "outputs": [
        {
          "name": "",
          "type": "uint8"
        }
      ],
      "payable": false,
      "stateMutability": "view",
      "type": "function"
    },
    {
      "constant": true,
      "inputs": [],
      "name": "feeRecipient",
      "outputs": [
        {
          "name": "",
          "type": "address"
        }
      ],
      "payable": false,
      "stateMutability": "view",
      "type": "function"
    },
    {
      "constant": true,
      "inputs": [
        {
          "name": "_bounty",
          "type": "uint256"
        },
        {
          "name": "_fee",
          "type": "uint256"
        },
        {
          "name": "_callGas",
          "type": "uint256"
        },
        {
          "name": "_callValue",
          "type": "uint256"
        },
        {
          "name": "_gasPrice",
          "type": "uint256"
        }
      ],
      "name": "computeEndowment",
      "outputs": [
        {
          "name": "",
          "type": "uint256"
        }
      ],
      "payable": false,
      "stateMutability": "pure",
      "type": "function"
    },
    {
      "constant": true,
      "inputs": [],
      "name": "factoryAddress",
      "outputs": [
        {
          "name": "",
          "type": "address"
        }
      ],
      "payable": false,
      "stateMutability": "view",
      "type": "function"
    },
    {
      "inputs": [
        {
          "name": "_factoryAddress",
          "type": "address"
        },
        {
          "name": "_feeRecipient",
          "type": "address"
        }
      ],
      "payable": false,
      "stateMutability": "nonpayable",
      "type": "constructor"
    },
    {
      "payable": true,
      "stateMutability": "payable",
      "type": "fallback"
    },
    {
      "anonymous": false,
      "inputs": [
        {
          "indexed": false,
          "name": "request",
          "type": "address"
        }
      ],
      "name": "NewRequest",
      "type": "event"
    }
  ],
  "bytecode": "0x608060405234801561001057600080fd5b50604051604080610ddf833981018060405281019080805190602001909291908051906020019092919050505060008273ffffffffffffffffffffffffffffffffffffffff161415151561006357600080fd5b6001600060146101000a81548160ff0219169083600281111561008257fe5b0217905550816000806101000a81548173ffffffffffffffffffffffffffffffffffffffff021916908373ffffffffffffffffffffffffffffffffffffffff16021790555080600160006101000a81548173ffffffffffffffffffffffffffffffffffffffff021916908373ffffffffffffffffffffffffffffffffffffffff1602179055505050610cc6806101196000396000f30060806040526004361061006d576000357c0100000000000000000000000000000000000000000000000000000000900463ffffffff1680630801b6541461006f5780633c8a072e1461015b578063469048401461019457806363b6240d146101eb578063966dae0e14610254575b005b610119600480360381019080803573ffffffffffffffffffffffffffffffffffffffff169060200190929190803590602001908201803590602001908080601f01602080910402602001604051908101604052809392919081815260200183838082843782019150505050505091929192908061010001906008806020026040519081016040528092919082600860200280828437820191505050505091929192905050506102ab565b604051808273ffffffffffffffffffffffffffffffffffffffff1673ffffffffffffffffffffffffffffffffffffffff16815260200191505060405180910390f35b34801561016757600080fd5b50610170610ac7565b6040518082600281111561018057fe5b60ff16815260200191505060405180910390f35b3480156101a057600080fd5b506101a9610ada565b604051808273ffffffffffffffffffffffffffffffffffffffff1673ffffffffffffffffffffffffffffffffffffffff16815260200191505060405180910390f35b3480156101f757600080fd5b5061023e6004803603810190808035906020019092919080359060200190929190803590602001909291908035906020019092919080359060200190929190505050610b00565b6040518082815260200191505060405180910390f35b34801561026057600080fd5b50610269610c75565b604051808273ffffffffffffffffffffffffffffffffffffffff1673ffffffffffffffffffffffffffffffffffffffff16815260200191505060405180910390f35b60008060008060009054906101000a900473ffffffffffffffffffffffffffffffffffffffff1691506103408460066008811015156102e657fe5b60200201518560056008811015156102fa57fe5b602002015186600060088110151561030e57fe5b602002015187600160088110151561032257fe5b602002015188600460088110151561033657fe5b6020020151610b00565b905080341015151561035157600080fd5b6001600281111561035e57fe5b600060149054906101000a900460ff16600281111561037957fe5b14156106be578173ffffffffffffffffffffffffffffffffffffffff1663d7ceab4c346060604051908101604052803373ffffffffffffffffffffffffffffffffffffffff1673ffffffffffffffffffffffffffffffffffffffff168152602001600160009054906101000a900473ffffffffffffffffffffffffffffffffffffffff1673ffffffffffffffffffffffffffffffffffffffff1673ffffffffffffffffffffffffffffffffffffffff1681526020018a73ffffffffffffffffffffffffffffffffffffffff1673ffffffffffffffffffffffffffffffffffffffff168152506101806040519081016040528089600560088110151561047a57fe5b6020020151815260200189600660088110151561049357fe5b6020020151815260200160ff8152602001600a815260200160108152602001600060149054906101000a900460ff1660028111156104cd57fe5b81526020018960026008811015156104e157fe5b602002015181526020018960036008811015156104fa57fe5b6020020151815260200189600060088110151561051357fe5b6020020151815260200189600160088110151561052c57fe5b6020020151815260200189600460088110151561054557fe5b6020020151815260200189600760088110151561055e57fe5b6020020151815250896040518563ffffffff167c01000000000000000000000000000000000000000000000000000000000281526004018084600360200280838360005b838110156105bd5780820151818401526020810190506105a2565b5050505090500183600c60200280838360005b838110156105eb5780820151818401526020810190506105d0565b5050505090500180602001828103825283818151815260200191508051906020019080838360005b8381101561062e578082015181840152602081019050610613565b50505050905090810190601f16801561065b5780820380516001836020036101000a031916815260200191505b509450505050506020604051808303818588803b15801561067b57600080fd5b505af115801561068f573d6000803e3d6000fd5b50505050506040513d60208110156106a657600080fd5b81019080805190602001909291905050509250610a32565b6002808111156106ca57fe5b600060149054906101000a900460ff1660028111156106e557fe5b1415610a2c578173ffffffffffffffffffffffffffffffffffffffff1663d7ceab4c346060604051908101604052803373ffffffffffffffffffffffffffffffffffffffff1673ffffffffffffffffffffffffffffffffffffffff168152602001600160009054906101000a900473ffffffffffffffffffffffffffffffffffffffff1673ffffffffffffffffffffffffffffffffffffffff1673ffffffffffffffffffffffffffffffffffffffff1681526020018a73ffffffffffffffffffffffffffffffffffffffff1673ffffffffffffffffffffffffffffffffffffffff16815250610180604051908101604052808960056008811015156107e657fe5b602002015181526020018960066008811015156107ff57fe5b60200201518152602001610e10815260200160b4815260200161012c8152602001600060149054906101000a900460ff16600281111561083b57fe5b815260200189600260088110151561084f57fe5b6020020151815260200189600360088110151561086857fe5b6020020151815260200189600060088110151561088157fe5b6020020151815260200189600160088110151561089a57fe5b602002015181526020018960046008811015156108b357fe5b602002015181526020018960076008811015156108cc57fe5b6020020151815250896040518563ffffffff167c01000000000000000000000000000000000000000000000000000000000281526004018084600360200280838360005b8381101561092b578082015181840152602081019050610910565b5050505090500183600c60200280838360005b8381101561095957808201518184015260208101905061093e565b5050505090500180602001828103825283818151815260200191508051906020019080838360005b8381101561099c578082015181840152602081019050610981565b50505050905090810190601f1680156109c95780820380516001836020036101000a031916815260200191505b509450505050506020604051808303818588803b1580156109e957600080fd5b505af11580156109fd573d6000803e3d6000fd5b50505050506040513d6020811015610a1457600080fd5b81019080805190602001909291905050509250610a31565b600080fd5b5b60008373ffffffffffffffffffffffffffffffffffffffff1614151515610a5857600080fd5b7f2749295aa7ffdbd4d16719dc03d592cd081eebd9bb790ceedce201a40675fc0383604051808273ffffffffffffffffffffffffffffffffffffffff1673ffffffffffffffffffffffffffffffffffffffff16815260200191505060405180910390a182925050509392505050565b600060149054906101000a900460ff1681565b600160009054906101000a900473ffffffffffffffffffffffffffffffffffffffff1681565b600073__PaymentLib____________________________635ee345e4878787878773__RequestLib____________________________6345104b166040518163ffffffff167c010000000000000000000000000000000000000000000000000000000002815260040160206040518083038186803b158015610b8157600080fd5b505af4158015610b95573d6000803e3d6000fd5b505050506040513d6020811015610bab57600080fd5b81019080805190602001909291905050506040518763ffffffff167c010000000000000000000000000000000000000000000000000000000002815260040180878152602001868152602001858152602001848152602001838152602001828152602001965050505050505060206040518083038186803b158015610c2f57600080fd5b505af4158015610c43573d6000803e3d6000fd5b505050506040513d6020811015610c5957600080fd5b8101908080519060200190929190505050905095945050505050565b6000809054906101000a900473ffffffffffffffffffffffffffffffffffffffff16815600a165627a7a72305820709a7c819500d8270cc4e5aecf8df0a533500c77c63982c7a95eb7963d64b2ce0029",
  "source": "pragma solidity ^0.4.21;\n\nimport \"contracts/Library/RequestScheduleLib.sol\";\nimport \"contracts/Scheduler/BaseScheduler.sol\";\n\n/**\n * @title BlockScheduler\n * @dev Top-level contract that exposes the API to the Ethereum Alarm Clock service and passes in blocks as temporal unit.\n */\ncontract BlockScheduler is BaseScheduler {\n\n    /**\n     * @dev Constructor\n     * @param _factoryAddress Address of the RequestFactory which creates requests for this scheduler.\n     */\n    function BlockScheduler(address _factoryAddress, address _feeRecipient) public {\n        require(_factoryAddress != 0x0);\n\n        // Default temporal unit is block number.\n        temporalUnit = RequestScheduleLib.TemporalUnit.Blocks;\n\n        // Sets the factoryAddress variable found in SchedulerInterface contract.\n        factoryAddress = _factoryAddress;\n\n        // Sets the fee recipient for these schedulers.\n        feeRecipient = _feeRecipient;\n    }\n}\n",
  "sourcePath": "/Users/piotrkosinski/Projects/eac/contracts/Scheduler/BlockScheduler.sol",
  "compiler": {
    "name": "solc",
    "version": "0.4.23+commit.124ca40d.Emscripten.clang"
  },
  "schemaVersion": "2.0.0",
  "updatedAt": "2018-04-24T07:01:29.895Z"
}