{
  "contractName": "DelayedPayment",
  "abi": [
    {
      "constant": true,
      "inputs": [],
      "name": "scheduler",
      "outputs": [
        {
          "name": "",
          "type": "address"
        }
      ],
      "payable": false,
      "stateMutability": "view",
      "type": "function"
    },
    {
      "constant": true,
      "inputs": [],
      "name": "scheduledTransaction",
      "outputs": [
        {
          "name": "",
          "type": "address"
        }
      ],
      "payable": false,
      "stateMutability": "view",
      "type": "function"
    },
    {
      "inputs": [
        {
          "name": "_scheduler",
          "type": "address"
        },
        {
          "name": "_numBlocks",
          "type": "uint256"
        },
        {
          "name": "_recipient",
          "type": "address"
        }
      ],
      "payable": true,
      "stateMutability": "payable",
      "type": "constructor"
    },
    {
      "payable": true,
      "stateMutability": "payable",
      "type": "fallback"
    },
    {
      "constant": false,
      "inputs": [],
      "name": "payout",
      "outputs": [
        {
          "name": "",
          "type": "bool"
        }
      ],
      "payable": false,
      "stateMutability": "nonpayable",
      "type": "function"
    }
  ],
  "bytecode": "0x60606040526040516060806104fe83398101604052808051906020019091908051906020019091908051906020019091905050826000806101000a81548173ffffffffffffffffffffffffffffffffffffffff021916908373ffffffffffffffffffffffffffffffffffffffff16021790555081430160018190555080600260006101000a81548173ffffffffffffffffffffffffffffffffffffffff021916908373ffffffffffffffffffffffffffffffffffffffff1602179055506000809054906101000a900473ffffffffffffffffffffffffffffffffffffffff1673ffffffffffffffffffffffffffffffffffffffff16630801b65467016345785d8a0000306101006040519081016040528062030d4081526020016000815260200160ff815260200160015481526020016404a817c80081526020016404a817c80081526020016404a817c80081526020016406fc23ac008152506040518463ffffffff167c0100000000000000000000000000000000000000000000000000000000028152600401808373ffffffffffffffffffffffffffffffffffffffff1673ffffffffffffffffffffffffffffffffffffffff1681526020018060200183600860200280838360005b838110156101e55780820151818401526020810190506101ca565b5050505090500182810382526000815260200160200193505050506020604051808303818588803b151561021857600080fd5b5af1151561022557600080fd5b5050505060405180519050600360006101000a81548173ffffffffffffffffffffffffffffffffffffffff021916908373ffffffffffffffffffffffffffffffffffffffff16021790555050505061027c806102826000396000f300606060405260043610610057576000357c0100000000000000000000000000000000000000000000000000000000900463ffffffff16806363bd1d4a1461009b578063d1ad17bf146100c8578063ee177f4a1461011d575b600034111561006557610099565b60003073ffffffffffffffffffffffffffffffffffffffff163111156100935761008d610172565b50610098565b600080fd5b5b005b34156100a657600080fd5b6100ae610172565b604051808215151515815260200191505060405180910390f35b34156100d357600080fd5b6100db610205565b604051808273ffffffffffffffffffffffffffffffffffffffff1673ffffffffffffffffffffffffffffffffffffffff16815260200191505060405180910390f35b341561012857600080fd5b61013061022a565b604051808273ffffffffffffffffffffffffffffffffffffffff1673ffffffffffffffffffffffffffffffffffffffff16815260200191505060405180910390f35b6000600154431015151561018557600080fd5b600260009054906101000a900473ffffffffffffffffffffffffffffffffffffffff1673ffffffffffffffffffffffffffffffffffffffff166108fc3073ffffffffffffffffffffffffffffffffffffffff16319081150290604051600060405180830381858888f1935050505015156101fe57600080fd5b6001905090565b6000809054906101000a900473ffffffffffffffffffffffffffffffffffffffff1681565b600360009054906101000a900473ffffffffffffffffffffffffffffffffffffffff16815600a165627a7a72305820106d31098d87825a03454986cdc367894c6bd9496906d324a45de27b533f652a0029",
  "source": "pragma solidity ^0.4.21;\n\nimport \"contracts/Interface/SchedulerInterface.sol\";\n\n/// Example of using the Scheduler from a smart contract to delay a payment.\ncontract DelayedPayment {\n\n    SchedulerInterface public scheduler;\n    \n    uint lockedUntil;\n    address recipient;\n    address public scheduledTransaction;\n\n    function DelayedPayment(\n        address _scheduler,\n        uint    _numBlocks,\n        address _recipient\n    )  public payable {\n        scheduler = SchedulerInterface(_scheduler);\n        lockedUntil = block.number + _numBlocks;\n        recipient = _recipient;\n\n        scheduledTransaction = scheduler.schedule.value(0.1 ether)( // 0.1 ether is to pay for gas, bounty and fee\n            this,                   // send to self\n            \"\",                     // and trigger fallback function\n            [\n                200000,             // The amount of gas to be sent with the transaction.\n                0,                  // The amount of wei to be sent.\n                255,                // The size of the execution window.\n                lockedUntil,        // The start of the execution window.\n                20000000000 wei,    // The gasprice for the transaction (aka 20 gwei)\n                20000000000 wei,    // The fee included in the transaction.\n                20000000000 wei,         // The bounty that awards the executor of the transaction.\n                30000000000 wei     // The required amount of wei the claimer must send as deposit.\n            ]\n        );\n    }\n\n    function () public payable {\n        if (msg.value > 0) { //this handles recieving remaining funds sent while scheduling (0.1 ether)\n            return;\n        } else if (address(this).balance > 0) {\n            payout();\n        } else {\n            revert();\n        }\n    }\n\n    function payout()\n        public returns (bool)\n    {\n        require(block.number >= lockedUntil);\n        \n        recipient.transfer(address(this).balance);\n        return true;\n    }\n}",
  "sourcePath": "/Users/piotrkosinski/Projects/eac/contracts/_examples/DelayedPayment.sol",
  "compiler": {
    "name": "solc",
    "version": "0.4.21+commit.dfe3193c.Emscripten.clang"
  },
  "schemaVersion": "2.0.0",
  "updatedAt": "2018-04-20T09:55:18.716Z"
}