{
  "contractName": "MathLib",
  "abi": [
    {
      "constant": true,
      "inputs": [
        {
          "name": "a",
          "type": "uint256"
        },
        {
          "name": "b",
          "type": "uint256"
        }
      ],
      "name": "max",
      "outputs": [
        {
          "name": "",
          "type": "uint256"
        }
      ],
      "payable": false,
      "stateMutability": "pure",
      "type": "function"
    },
    {
      "constant": true,
      "inputs": [
        {
          "name": "a",
          "type": "uint256"
        },
        {
          "name": "b",
          "type": "uint256"
        }
      ],
      "name": "min",
      "outputs": [
        {
          "name": "",
          "type": "uint256"
        }
      ],
      "payable": false,
      "stateMutability": "pure",
      "type": "function"
    },
    {
      "constant": true,
      "inputs": [
        {
          "name": "a",
          "type": "uint256"
        }
      ],
      "name": "safeCastSigned",
      "outputs": [
        {
          "name": "",
          "type": "int256"
        }
      ],
      "payable": false,
      "stateMutability": "pure",
      "type": "function"
    }
  ],
  "bytecode": "0x6101a5610030600b82828239805160001a6073146000811461002057610022565bfe5b5030600052607381538281f300730000000000000000000000000000000000000000301460606040526004361061006e576000357c0100000000000000000000000000000000000000000000000000000000900463ffffffff1680636d5433e6146100735780637ae2b5c7146100a857806388102583146100dd575b600080fd5b6100926004808035906020019091908035906020019091905050610109565b6040518082815260200191505060405180910390f35b6100c76004808035906020019091908035906020019091905050610126565b6040518082815260200191505060405180910390f35b6100f36004808035906020019091905050610143565b6040518082815260200191505060405180910390f35b6000818310151561011c57829050610120565b8190505b92915050565b600081831115156101395782905061013d565b8190505b92915050565b60007f7fffffffffffffffffffffffffffffffffffffffffffffffffffffffffffffff821115151561017157fe5b8190509190505600a165627a7a72305820ce6b9d9bb5601916f72b6110e494ca6588e6b13149b5d1dc04142753dabb96070029",
  "source": "pragma solidity ^0.4.21;\n\nlibrary MathLib {\n    uint constant INT_MAX = 57896044618658097711785492504343953926634992332820282019728792003956564819967;  // 2**255 - 1\n    /*\n     * Subtracts b from a in a manner such that zero is returned when an\n     * underflow condition is met.\n     */\n    // function flooredSub(uint a, uint b) returns (uint) {\n    //     if (b >= a) {\n    //         return 0;\n    //     } else {\n    //         return a - b;\n    //     }\n    // }\n\n    // /*\n    //  * Adds b to a in a manner that throws an exception when overflow\n    //  * conditions are met.\n    //  */\n    // function safeAdd(uint a, uint b) returns (uint) {\n    //     if (a + b >= a) {\n    //         return a + b;\n    //     } else {\n    //         throw;\n    //     }\n    // }\n\n    // /*\n    //  * Multiplies a by b in a manner that throws an exception when overflow\n    //  * conditions are met.\n    //  */\n    // function safeMultiply(uint a, uint b) returns (uint) {\n    //     var result = a * b;\n    //     if (b == 0 || result / b == a) {\n    //         return a * b;\n    //     } else {\n    //         throw;\n    //     }\n    // }\n\n    /*\n     * Return the larger of a or b.  Returns a if a == b.\n     */\n    function max(uint a, uint b) \n        public pure returns (uint)\n    {\n        if (a >= b) {\n            return a;\n        } else {\n            return b;\n        }\n    }\n\n    /*\n     * Return the larger of a or b.  Returns a if a == b.\n     */\n    function min(uint a, uint b) \n        public pure returns (uint)\n    {\n        if (a <= b) {\n            return a;\n        } else {\n            return b;\n        }\n    }\n\n    /*\n     * Returns a represented as a signed integer in a manner that throw an\n     * exception if casting to signed integer would result in a negative\n     * number.\n     */\n    function safeCastSigned(uint a) \n        public pure returns (int)\n    {\n        assert(a <= INT_MAX);\n        return int(a);\n    }\n    \n}\n",
  "sourcePath": "contracts/Library/MathLib.sol",
  "compiler": {
    "name": "solc",
    "version": "0.4.21+commit.dfe3193c.Emscripten.clang"
  },
  "schemaVersion": "2.0.0",
  "updatedAt": "2018-05-21T17:42:15.845Z"
}