{
  "contractName": "RecurringPayment",
  "abi": [
    {
      "constant": true,
      "inputs": [],
      "name": "scheduler",
      "outputs": [
        {
          "name": "",
          "type": "address"
        }
      ],
      "payable": false,
      "stateMutability": "view",
      "type": "function"
    },
    {
      "constant": true,
      "inputs": [],
      "name": "currentScheduledTransaction",
      "outputs": [
        {
          "name": "",
          "type": "address"
        }
      ],
      "payable": false,
      "stateMutability": "view",
      "type": "function"
    },
    {
      "inputs": [
        {
          "name": "_scheduler",
          "type": "address"
        },
        {
          "name": "_paymentInterval",
          "type": "uint256"
        },
        {
          "name": "_paymentValue",
          "type": "uint256"
        },
        {
          "name": "_recipient",
          "type": "address"
        }
      ],
      "payable": true,
      "stateMutability": "payable",
      "type": "constructor"
    },
    {
      "payable": true,
      "stateMutability": "payable",
      "type": "fallback"
    },
    {
      "anonymous": false,
      "inputs": [
        {
          "indexed": true,
          "name": "scheduledTransaction",
          "type": "address"
        },
        {
          "indexed": false,
          "name": "recipient",
          "type": "address"
        },
        {
          "indexed": false,
          "name": "value",
          "type": "uint256"
        }
      ],
      "name": "PaymentScheduled",
      "type": "event"
    },
    {
      "anonymous": false,
      "inputs": [
        {
          "indexed": true,
          "name": "scheduledTransaction",
          "type": "address"
        },
        {
          "indexed": false,
          "name": "recipient",
          "type": "address"
        },
        {
          "indexed": false,
          "name": "value",
          "type": "uint256"
        }
      ],
      "name": "PaymentExecuted",
      "type": "event"
    },
    {
      "constant": false,
      "inputs": [],
      "name": "process",
      "outputs": [
        {
          "name": "",
          "type": "bool"
        }
      ],
      "payable": false,
      "stateMutability": "nonpayable",
      "type": "function"
    }
  ],
  "bytecode": "0x606060405260405160808061095a83398101604052808051906020019091908051906020019091908051906020019091908051906020019091905050836000806101000a81548173ffffffffffffffffffffffffffffffffffffffff021916908373ffffffffffffffffffffffffffffffffffffffff1602179055508260018190555080600460006101000a81548173ffffffffffffffffffffffffffffffffffffffff021916908373ffffffffffffffffffffffffffffffffffffffff160217905550816002819055506100e56100ef64010000000002610318176401000000009004565b505050505061037b565b600060015443016003819055506000809054906101000a900473ffffffffffffffffffffffffffffffffffffffff1673ffffffffffffffffffffffffffffffffffffffff16630801b65467016345785d8a00003061010060405190810160405280620f424081526020016000815260200160ff815260200160035481526020016404a817c80081526020016404a817c80081526020016404a817c80081526020016406fc23ac008152506040518463ffffffff167c0100000000000000000000000000000000000000000000000000000000028152600401808373ffffffffffffffffffffffffffffffffffffffff1673ffffffffffffffffffffffffffffffffffffffff1681526020018060200183600860200280838360005b8381101561022557808201518184015260208101905061020a565b5050505090500182810382526000815260200160200193505050506020604051808303818588803b151561025857600080fd5b5af1151561026557600080fd5b5050505060405180519050600560006101000a81548173ffffffffffffffffffffffffffffffffffffffff021916908373ffffffffffffffffffffffffffffffffffffffff160217905550600560009054906101000a900473ffffffffffffffffffffffffffffffffffffffff1673ffffffffffffffffffffffffffffffffffffffff167f4af0c8645a6689f769a3d01b49a33d9aedacab3b36cdcfa34cfccb9b9be558ac600460009054906101000a900473ffffffffffffffffffffffffffffffffffffffff16600254604051808373ffffffffffffffffffffffffffffffffffffffff1673ffffffffffffffffffffffffffffffffffffffff1681526020018281526020019250505060405180910390a290565b6105d08061038a6000396000f300606060405260043610610057576000357c0100000000000000000000000000000000000000000000000000000000900463ffffffff168063c33fb87714610071578063d1ad17bf1461009e578063ddde3cb2146100f3575b60003411156100655761006f565b61006d610148565b505b005b341561007c57600080fd5b610084610148565b604051808215151515815260200191505060405180910390f35b34156100a957600080fd5b6100b161015f565b604051808273ffffffffffffffffffffffffffffffffffffffff1673ffffffffffffffffffffffffffffffffffffffff16815260200191505060405180910390f35b34156100fe57600080fd5b610106610184565b604051808273ffffffffffffffffffffffffffffffffffffffff1673ffffffffffffffffffffffffffffffffffffffff16815260200191505060405180910390f35b60006101526101aa565b5061015b610318565b5090565b6000809054906101000a900473ffffffffffffffffffffffffffffffffffffffff1681565b600560009054906101000a900473ffffffffffffffffffffffffffffffffffffffff1681565b600060035443101515156101bd57600080fd5b6002543073ffffffffffffffffffffffffffffffffffffffff1631101515156101e557600080fd5b600460009054906101000a900473ffffffffffffffffffffffffffffffffffffffff1673ffffffffffffffffffffffffffffffffffffffff166108fc6002549081150290604051600060405180830381858888f19350505050151561024957600080fd5b600560009054906101000a900473ffffffffffffffffffffffffffffffffffffffff1673ffffffffffffffffffffffffffffffffffffffff167f107f47a72001748abd3c158810f2111e5fdab22dbbfc1d9c5578889e8da5c408600460009054906101000a900473ffffffffffffffffffffffffffffffffffffffff16600254604051808373ffffffffffffffffffffffffffffffffffffffff1673ffffffffffffffffffffffffffffffffffffffff1681526020018281526020019250505060405180910390a26001905090565b600060015443016003819055506000809054906101000a900473ffffffffffffffffffffffffffffffffffffffff1673ffffffffffffffffffffffffffffffffffffffff16630801b65467016345785d8a00003061010060405190810160405280620f424081526020016000815260200160ff815260200160035481526020016404a817c80081526020016404a817c80081526020016404a817c80081526020016406fc23ac008152506040518463ffffffff167c0100000000000000000000000000000000000000000000000000000000028152600401808373ffffffffffffffffffffffffffffffffffffffff1673ffffffffffffffffffffffffffffffffffffffff1681526020018060200183600860200280838360005b8381101561044e578082015181840152602081019050610433565b5050505090500182810382526000815260200160200193505050506020604051808303818588803b151561048157600080fd5b5af1151561048e57600080fd5b5050505060405180519050600560006101000a81548173ffffffffffffffffffffffffffffffffffffffff021916908373ffffffffffffffffffffffffffffffffffffffff160217905550600560009054906101000a900473ffffffffffffffffffffffffffffffffffffffff1673ffffffffffffffffffffffffffffffffffffffff167f4af0c8645a6689f769a3d01b49a33d9aedacab3b36cdcfa34cfccb9b9be558ac600460009054906101000a900473ffffffffffffffffffffffffffffffffffffffff16600254604051808373ffffffffffffffffffffffffffffffffffffffff1673ffffffffffffffffffffffffffffffffffffffff1681526020018281526020019250505060405180910390a2905600a165627a7a72305820f484c3452e855250224698895d7fd8ca8e1e7466f3e3a76485e8edacdcaa588d0029",
  "source": "pragma solidity ^0.4.21;\n\nimport \"contracts/Interface/SchedulerInterface.sol\";\n\n/// Example of using the Scheduler from a smart contract to delay a payment.\ncontract RecurringPayment {\n    SchedulerInterface public scheduler;\n    \n    uint paymentInterval;\n    uint paymentValue;\n    uint lockedUntil;\n\n    address recipient;\n    address public currentScheduledTransaction;\n\n    event PaymentScheduled(address indexed scheduledTransaction, address recipient, uint value);\n    event PaymentExecuted(address indexed scheduledTransaction, address recipient, uint value);\n\n    function RecurringPayment(\n        address _scheduler,\n        uint _paymentInterval,\n        uint _paymentValue,\n        address _recipient\n    )  public payable {\n        scheduler = SchedulerInterface(_scheduler);\n        paymentInterval = _paymentInterval;\n        recipient = _recipient;\n        paymentValue = _paymentValue;\n\n        schedule();\n    }\n\n    function ()\n        public payable \n    {\n        if (msg.value > 0) { //this handles recieving remaining funds sent while scheduling (0.1 ether)\n            return;\n        } \n        \n        process();\n    }\n\n    function process() public returns (bool) {\n        payout();\n        schedule();\n    }\n\n    function payout()\n        private returns (bool)\n    {\n        require(block.number >= lockedUntil);\n        require(address(this).balance >= paymentValue);\n        \n        recipient.transfer(paymentValue);\n\n        emit PaymentExecuted(currentScheduledTransaction, recipient, paymentValue);\n        return true;\n    }\n\n    function schedule() \n        private returns (bool)\n    {\n        lockedUntil = block.number + paymentInterval;\n\n        currentScheduledTransaction = scheduler.schedule.value(0.1 ether)( // 0.1 ether is to pay for gas, bounty and fee\n            this,                   // send to self\n            \"\",                     // and trigger fallback function\n            [\n                1000000,            // The amount of gas to be sent with the transaction. Accounts for payout + new contract deployment\n                0,                  // The amount of wei to be sent.\n                255,                // The size of the execution window.\n                lockedUntil,        // The start of the execution window.\n                20000000000 wei,    // The gasprice for the transaction (aka 20 gwei)\n                20000000000 wei,    // The fee included in the transaction.\n                20000000000 wei,         // The bounty that awards the executor of the transaction.\n                30000000000 wei     // The required amount of wei the claimer must send as deposit.\n            ]\n        );\n\n        emit PaymentScheduled(currentScheduledTransaction, recipient, paymentValue);\n    }\n}",
  "sourcePath": "/home/logan/Work/ethereum-alarm-clock/contracts/_examples/RecurringPayment.sol",
  "compiler": {
    "name": "solc",
    "version": "0.4.21+commit.dfe3193c.Emscripten.clang"
  },
  "schemaVersion": "2.0.0",
  "updatedAt": "2018-05-21T17:32:05.231Z"
}