{
  "contractName": "TransactionRequestCore",
  "abi": [
    {
      "payable": true,
      "stateMutability": "payable",
      "type": "fallback"
    },
    {
      "constant": false,
      "inputs": [
        {
          "name": "addressArgs",
          "type": "address[4]"
        },
        {
          "name": "uintArgs",
          "type": "uint256[12]"
        },
        {
          "name": "callData",
          "type": "bytes"
        }
      ],
      "name": "initialize",
      "outputs": [],
      "payable": true,
      "stateMutability": "payable",
      "type": "function"
    },
    {
      "constant": false,
      "inputs": [],
      "name": "execute",
      "outputs": [
        {
          "name": "",
          "type": "bool"
        }
      ],
      "payable": false,
      "stateMutability": "nonpayable",
      "type": "function"
    },
    {
      "constant": false,
      "inputs": [],
      "name": "cancel",
      "outputs": [
        {
          "name": "",
          "type": "bool"
        }
      ],
      "payable": false,
      "stateMutability": "nonpayable",
      "type": "function"
    },
    {
      "constant": false,
      "inputs": [],
      "name": "claim",
      "outputs": [
        {
          "name": "",
          "type": "bool"
        }
      ],
      "payable": true,
      "stateMutability": "payable",
      "type": "function"
    },
    {
      "constant": true,
      "inputs": [],
      "name": "requestData",
      "outputs": [
        {
          "name": "",
          "type": "address[6]"
        },
        {
          "name": "",
          "type": "bool[3]"
        },
        {
          "name": "",
          "type": "uint256[15]"
        },
        {
          "name": "",
          "type": "uint8[1]"
        }
      ],
      "payable": false,
      "stateMutability": "view",
      "type": "function"
    },
    {
      "constant": true,
      "inputs": [],
      "name": "callData",
      "outputs": [
        {
          "name": "data",
          "type": "bytes"
        }
      ],
      "payable": false,
      "stateMutability": "view",
      "type": "function"
    },
    {
      "constant": false,
      "inputs": [
        {
          "name": "_to",
          "type": "address"
        },
        {
          "name": "_data",
          "type": "bytes"
        }
      ],
      "name": "proxy",
      "outputs": [
        {
          "name": "success",
          "type": "bool"
        }
      ],
      "payable": true,
      "stateMutability": "payable",
      "type": "function"
    },
    {
      "constant": false,
      "inputs": [],
      "name": "refundClaimDeposit",
      "outputs": [
        {
          "name": "",
          "type": "bool"
        }
      ],
      "payable": false,
      "stateMutability": "nonpayable",
      "type": "function"
    },
    {
      "constant": false,
      "inputs": [],
      "name": "sendFee",
      "outputs": [
        {
          "name": "",
          "type": "bool"
        }
      ],
      "payable": false,
      "stateMutability": "nonpayable",
      "type": "function"
    },
    {
      "constant": false,
      "inputs": [],
      "name": "sendBounty",
      "outputs": [
        {
          "name": "",
          "type": "bool"
        }
      ],
      "payable": false,
      "stateMutability": "nonpayable",
      "type": "function"
    },
    {
      "constant": false,
      "inputs": [
        {
          "name": "recipient",
          "type": "address"
        }
      ],
      "name": "sendOwnerEther",
      "outputs": [
        {
          "name": "",
          "type": "bool"
        }
      ],
      "payable": false,
      "stateMutability": "nonpayable",
      "type": "function"
    },
    {
      "constant": false,
      "inputs": [],
      "name": "sendOwnerEther",
      "outputs": [
        {
          "name": "",
          "type": "bool"
        }
      ],
      "payable": false,
      "stateMutability": "nonpayable",
      "type": "function"
    }
  ],
  "bytecode": "0x60606040526000601760006101000a81548160ff021916908315150217905550341561002a57600080fd5b611e77806100396000396000f3006060604052600436106100ba576000357c0100000000000000000000000000000000000000000000000000000000900463ffffffff1680633e50b0b8146100bc5780634bb89c4d1461010d5780634e417a981461013a5780634e71d92d146101c8578063606deecd146101ea57806361461954146102c85780636949a058146102f5578063820e852214610322578063ae39279f146103cd578063b311ee0c146103fa578063be6d055a14610427578063ea8a1af0146104b0575b005b34156100c757600080fd5b6100f3600480803573ffffffffffffffffffffffffffffffffffffffff169060200190919050506104dd565b604051808215151515815260200191505060405180910390f35b341561011857600080fd5b61012061059d565b604051808215151515815260200191505060405180910390f35b341561014557600080fd5b61014d610627565b6040518080602001828103825283818151815260200191508051906020019080838360005b8381101561018d578082015181840152602081019050610172565b50505050905090810190601f1680156101ba5780820380516001836020036101000a031916815260200191505b509250505060405180910390f35b6101d06106d4565b604051808215151515815260200191505060405180910390f35b34156101f557600080fd5b6101fd6106e5565b6040518085600660200280838360005b8381101561022857808201518184015260208101905061020d565b5050505090500184600360200280838360005b8381101561025657808201518184015260208101905061023b565b5050505090500183600f60200280838360005b83811015610284578082015181840152602081019050610269565b5050505090500182600160200280838360005b838110156102b2578082015181840152602081019050610297565b5050505090500194505050505060405180910390f35b34156102d357600080fd5b6102db61071d565b604051808215151515815260200191505060405180910390f35b341561030057600080fd5b61030861072e565b604051808215151515815260200191505060405180910390f35b6103cb6004808060800190600480602002604051908101604052809291908260046020028082843782019150505050509190806101800190600c806020026040519081016040528092919082600c6020028082843782019150505050509190803590602001908201803590602001908080601f016020809104026020016040519081016040528093929190818152602001838380828437820191505050505050919050506107b8565b005b34156103d857600080fd5b6103e0610946565b604051808215151515815260200191505060405180910390f35b341561040557600080fd5b61040d6109d0565b604051808215151515815260200191505060405180910390f35b610496600480803573ffffffffffffffffffffffffffffffffffffffff1690602001909190803590602001908201803590602001908080601f01602080910402602001604051908101604052809392919081815260200183838082843782019150505050505091905050610a59565b604051808215151515815260200191505060405180910390f35b34156104bb57600080fd5b6104c3610b62565b604051808215151515815260200191505060405180910390f35b60008073__RequestLib____________________________63d81b530c9091846040518363ffffffff167c0100000000000000000000000000000000000000000000000000000000028152600401808381526020018273ffffffffffffffffffffffffffffffffffffffff1673ffffffffffffffffffffffffffffffffffffffff1681526020019250505060206040518083038186803b151561057f57600080fd5b5af4151561058c57600080fd5b505050604051805190509050919050565b60008073__RequestLib____________________________63ab3b2e8190916040518263ffffffff167c01000000000000000000000000000000000000000000000000000000000281526004018082815260200191505060206040518083038186803b151561060b57600080fd5b5af4151561061857600080fd5b50505060405180519050905090565b61062f611d7b565b600080016001018054600181600116156101000203166002900480601f0160208091040260200160405190810160405280929190818152602001828054600181600116156101000203166002900480156106ca5780601f1061069f576101008083540402835291602001916106ca565b820191906000526020600020905b8154815290600101906020018083116106ad57829003601f168201915b5050505050905090565b60006106e06000610bec565b905090565b6106ed611d8f565b6106f5611dcd565b6106fd611df7565b610705611e20565b61070f6000610c59565b935093509350935090919293565b6000610729600061104c565b905090565b60008073__RequestLib____________________________634074b91c90916040518263ffffffff167c01000000000000000000000000000000000000000000000000000000000281526004018082815260200191505060206040518083038186803b151561079c57600080fd5b5af415156107a957600080fd5b50505060405180519050905090565b601760009054906101000a900460ff161515156107d457600080fd5b600073__RequestLib____________________________638c5bebf290918585856040518563ffffffff167c01000000000000000000000000000000000000000000000000000000000281526004018085815260200184600460200280838360005b83811015610851578082015181840152602081019050610836565b5050505090500183600c60200280838360005b8381101561087f578082015181840152602081019050610864565b5050505090500180602001828103825283818151815260200191508051906020019080838360005b838110156108c25780820151818401526020810190506108a7565b50505050905090810190601f1680156108ef5780820380516001836020036101000a031916815260200191505b509550505050505060206040518083038186803b151561090e57600080fd5b5af4151561091b57600080fd5b50505060405180519050506001601760006101000a81548160ff021916908315150217905550505050565b60008073__RequestLib____________________________63f925a7d690916040518263ffffffff167c01000000000000000000000000000000000000000000000000000000000281526004018082815260200191505060206040518083038186803b15156109b457600080fd5b5af415156109c157600080fd5b50505060405180519050905090565b60008073__RequestLib____________________________637994549a90916040518263ffffffff167c01000000000000000000000000000000000000000000000000000000000281526004018082815260200191505060206040518083038186803b1515610a3e57600080fd5b5af41515610a4b57600080fd5b505050604051805190505090565b60003373ffffffffffffffffffffffffffffffffffffffff16600060050160000160009054906101000a900473ffffffffffffffffffffffffffffffffffffffff1673ffffffffffffffffffffffffffffffffffffffff16148015610ac75750610ac66000601101611652565b5b1515610ad257600080fd5b8273ffffffffffffffffffffffffffffffffffffffff16348360405180828051906020019080838360005b83811015610b18578082015181840152602081019050610afd565b50505050905090810190601f168015610b455780820380516001836020036101000a031916815260200191505b5091505060006040518083038185875af192505050905092915050565b60008073__RequestLib____________________________6332839d9890916040518263ffffffff167c01000000000000000000000000000000000000000000000000000000000281526004018082815260200191505060206040518083038186803b1515610bd057600080fd5b5af41515610bdd57600080fd5b50505060405180519050905090565b6000610bf78261166e565b1515610c0257600080fd5b610c23610c11836011016116df565b83600d0161174690919063ffffffff16565b507fbcb472984264b16baa8cde752f2af002ea8ce06f35d81caee36625234edd2a4660405160405180910390a160019050919050565b610c61611d8f565b610c69611dcd565b610c71611df7565b610c79611e20565b610c81611d8f565b610c89611dcd565b610c91611df7565b610c99611e20565b60c0604051908101604052808a600d0160000160009054906101000a900473ffffffffffffffffffffffffffffffffffffffff1673ffffffffffffffffffffffffffffffffffffffff1673ffffffffffffffffffffffffffffffffffffffff1681526020018a60050160010160009054906101000a900473ffffffffffffffffffffffffffffffffffffffff1673ffffffffffffffffffffffffffffffffffffffff1673ffffffffffffffffffffffffffffffffffffffff1681526020018a60050160000160009054906101000a900473ffffffffffffffffffffffffffffffffffffffff1673ffffffffffffffffffffffffffffffffffffffff1673ffffffffffffffffffffffffffffffffffffffff1681526020018a60070160040160009054906101000a900473ffffffffffffffffffffffffffffffffffffffff1673ffffffffffffffffffffffffffffffffffffffff1673ffffffffffffffffffffffffffffffffffffffff1681526020018a60070160010160009054906101000a900473ffffffffffffffffffffffffffffffffffffffff1673ffffffffffffffffffffffffffffffffffffffff1673ffffffffffffffffffffffffffffffffffffffff1681526020018a60000160000160009054906101000a900473ffffffffffffffffffffffffffffffffffffffff1673ffffffffffffffffffffffffffffffffffffffff1673ffffffffffffffffffffffffffffffffffffffff1681525093506060604051908101604052808a60050160010160149054906101000a900460ff161515151581526020018a60050160010160159054906101000a900460ff161515151581526020018a60050160010160169054906101000a900460ff161515151581525092506101e0604051908101604052808a600d016001015481526020018a6007016003015481526020018a6007016005015481526020018a6007016000015481526020018a6007016002015481526020018a6011016005015481526020018a6011016003015481526020018a6011016004015481526020018a60110160000160009054906101000a900460ff166002811115610fb657fe5b81526020018a6011016002015481526020018a6011016001015481526020018a6000016003015481526020018a6000016002015481526020018a6000016004015481526020018a600d016002015481525091506020604051908101604052808a600d0160030160009054906101000a900460ff1660ff1660ff168152509050838383839750975097509750505050509193509193565b6000806000805a92506110726161a8611064876117b7565b6117dd90919063ffffffff16565b5a10156110cb577fc008bc849b42227c61d5063a1313ce509a6e99211bfd59e827e417be6c65c81b600560068111156110a757fe5b604051808260ff1660ff16815260200191505060405180910390a16000935061164a565b8460050160010160159054906101000a900460ff1615611137577fc008bc849b42227c61d5063a1313ce509a6e99211bfd59e827e417be6c65c81b6001600681111561111357fe5b604051808260ff1660ff16815260200191505060405180910390a16000935061164a565b8460050160010160149054906101000a900460ff16156111a3577fc008bc849b42227c61d5063a1313ce509a6e99211bfd59e827e417be6c65c81b6000600681111561117f57fe5b604051808260ff1660ff16815260200191505060405180910390a16000935061164a565b6111af856011016117f9565b15611206577fc008bc849b42227c61d5063a1313ce509a6e99211bfd59e827e417be6c65c81b600260068111156111e257fe5b604051808260ff1660ff16815260200191505060405180910390a16000935061164a565b61121285601101611652565b15611269577fc008bc849b42227c61d5063a1313ce509a6e99211bfd59e827e417be6c65c81b6003600681111561124557fe5b604051808260ff1660ff16815260200191505060405180910390a16000935061164a565b61127585600d01611811565b80156112d4575084600d0160000160009054906101000a900473ffffffffffffffffffffffffffffffffffffffff1673ffffffffffffffffffffffffffffffffffffffff163373ffffffffffffffffffffffffffffffffffffffff1614155b80156112e857506112e785601101611858565b5b1561133f577fc008bc849b42227c61d5063a1313ce509a6e99211bfd59e827e417be6c65c81b6004600681111561131b57fe5b604051808260ff1660ff16815260200191505060405180910390a16000935061164a565b3a85600001600401541415156113a0577fc008bc849b42227c61d5063a1313ce509a6e99211bfd59e827e417be6c65c81b60068081111561137c57fe5b604051808260ff1660ff16815260200191505060405180910390a16000935061164a565b60018560050160010160156101000a81548160ff0219169083151502179055506113cc8560000161188c565b8560050160010160166101000a81548160ff0219169083151502179055506113f68560070161196d565b1561142c576114208560070160050154611412876007016119b4565b6119c290919063ffffffff16565b85600701600501819055505b84600701600501549150611442856007016119e3565b50338560070160010160006101000a81548173ffffffffffffffffffffffffffffffffffffffff021916908373ffffffffffffffffffffffffffffffffffffffff16021790555061149585600d01611811565b15611526576114bb856007016002015486600d01600101546119c290919063ffffffff16565b8560070160020181905550600085600d0160010181905550611516856007016002015461150887600d0160030160009054906101000a900460ff1688600701611a6b90919063ffffffff16565b6119c290919063ffffffff16565b8560070160020181905550611557565b61154b856007016002015461153d87600701611aa6565b6119c290919063ffffffff16565b85600701600201819055505b61157f62015f906115715a866117dd90919063ffffffff16565b6119c290919063ffffffff16565b90506115ad856007016002015461159f3a84611ab490919063ffffffff16565b6119c290919063ffffffff16565b85600701600201819055507f3e504bb8b225ad41f613b0c3c4205cdd752d1615b4d77cd1773417282fcfb5d98560070160020154838360405180848152602001838152602001828152602001935050505060405180910390a161161285600701611aea565b50611644858660050160000160009054906101000a900473ffffffffffffffffffffffffffffffffffffffff16611b72565b50600193505b505050919050565b600061165d82611c18565b61166683611c3c565b119050919050565b600061167c82600d01611811565b15151561168857600080fd5b8160050160010160149054906101000a900460ff161515156116a957600080fd5b6116b582601101611c5f565b15156116c057600080fd5b81600d016002015434101515156116d657600080fd5b60019050919050565b60008061172e836005015461172060646117126116fb88611c97565b61170489611c3c565b6117dd90919063ffffffff16565b611ab490919063ffffffff16565b611cbf90919063ffffffff16565b90506064811115151561173d57fe5b80915050919050565b6000338360000160006101000a81548173ffffffffffffffffffffffffffffffffffffffff021916908373ffffffffffffffffffffffffffffffffffffffff160217905550348360010181905550818360030160006101000a81548160ff021916908360ff16021790555092915050565b60006117d66202bf2083600001600301546119c290919063ffffffff16565b9050919050565b60008282111515156117ee57600080fd5b818303905092915050565b6000816001015461180983611c3c565b109050919050565b6000808260000160009054906101000a900473ffffffffffffffffffffffffffffffffffffffff1673ffffffffffffffffffffffffffffffffffffffff1614159050919050565b600061186382611c3c565b826001015411158015611885575061187a82611cda565b61188383611c3c565b105b9050919050565b60003a82600401541415156118a057600080fd5b8160000160009054906101000a900473ffffffffffffffffffffffffffffffffffffffff1673ffffffffffffffffffffffffffffffffffffffff16826002015483600301549084600101604051808280546001816001161561010002031660029004801561194f5780601f106119245761010080835404028352916020019161194f565b820191906000526020600020905b81548152906001019060200180831161193257829003601f168201915b5050915050600060405180830381858888f193505050509050919050565b6000808260040160009054906101000a900473ffffffffffffffffffffffffffffffffffffffff1673ffffffffffffffffffffffffffffffffffffffff1614159050919050565b600081600301549050919050565b60008082840190508381101515156119d957600080fd5b8091505092915050565b600080826005015490506000811115611a6057600083600501819055508260040160009054906101000a900473ffffffffffffffffffffffffffffffffffffffff1673ffffffffffffffffffffffffffffffffffffffff166108fc829081150290604051600060405180830381858888f193505050509150611a65565b600191505b50919050565b6000611a9e6064611a908460ff16611a8287611aa6565b611ab490919063ffffffff16565b611cbf90919063ffffffff16565b905092915050565b600081600001549050919050565b60008082840290506000841480611ad55750828482811515611ad257fe5b04145b1515611ae057600080fd5b8091505092915050565b600080826002015490506000811115611b6757600083600201819055508260010160009054906101000a900473ffffffffffffffffffffffffffffffffffffffff1673ffffffffffffffffffffffffffffffffffffffff166108fc829081150290604051600060405180830381858888f193505050509150611b6c565b600191505b50919050565b600080611bd88460070160050154611bca8660070160020154611bbc88600d01600101543073ffffffffffffffffffffffffffffffffffffffff16316117dd90919063ffffffff16565b6117dd90919063ffffffff16565b6117dd90919063ffffffff16565b90508273ffffffffffffffffffffffffffffffffffffffff166108fc829081150290604051600060405180830381858888f1935050505091505092915050565b6000611c35826002015483600101546119c290919063ffffffff16565b9050919050565b6000611c588260000160009054906101000a900460ff16611cfe565b9050919050565b6000611c6a82611c3c565b611c7383611c97565b11158015611c905750611c8582611d57565b611c8e83611c3c565b105b9050919050565b6000611cb88260050154611caa84611d57565b6117dd90919063ffffffff16565b9050919050565b6000808284811515611ccd57fe5b0490508091505092915050565b6000611cf7826004015483600101546119c290919063ffffffff16565b9050919050565b6000600280811115611d0c57fe5b826002811115611d1857fe5b1415611d2657429050611d52565b60016002811115611d3357fe5b826002811115611d3f57fe5b1415611d4d57439050611d52565b600080fd5b919050565b6000611d74826003015483600101546117dd90919063ffffffff16565b9050919050565b602060405190810160405280600081525090565b60c0604051908101604052806006905b600073ffffffffffffffffffffffffffffffffffffffff16815260200190600190039081611d9f5790505090565b6060604051908101604052806003905b60001515815260200190600190039081611ddd5790505090565b6101e060405190810160405280600f905b6000815260200190600190039081611e085790505090565b6020604051908101604052806001905b600060ff16815260200190600190039081611e3057905050905600a165627a7a7230582029d98293db4c6965e25edb14767cd640d7798894067fad7013112ef2f860ff2c0029",
  "source": "pragma solidity ^0.4.21;\n\nimport \"contracts/Library/RequestLib.sol\";\nimport \"contracts/Library/RequestScheduleLib.sol\";\nimport \"contracts/Interface/TransactionRequestInterface.sol\";\n\ncontract TransactionRequestCore is TransactionRequestInterface {\n    using RequestLib for RequestLib.Request;\n    using RequestScheduleLib for RequestScheduleLib.ExecutionWindow;\n\n    RequestLib.Request txnRequest;\n    bool private initialized = false;\n\n    /*\n     *  addressArgs[0] - meta.createdBy\n     *  addressArgs[1] - meta.owner\n     *  addressArgs[2] - paymentData.feeRecipient\n     *  addressArgs[3] - txnData.toAddress\n     *\n     *  uintArgs[0]  - paymentData.fee\n     *  uintArgs[1]  - paymentData.bounty\n     *  uintArgs[2]  - schedule.claimWindowSize\n     *  uintArgs[3]  - schedule.freezePeriod\n     *  uintArgs[4]  - schedule.reservedWindowSize\n     *  uintArgs[5]  - schedule.temporalUnit\n     *  uintArgs[7]  - schedule.executionWindowSize\n     *  uintArgs[6]  - schedule.windowStart\n     *  uintArgs[8]  - txnData.callGas\n     *  uintArgs[9]  - txnData.callValue\n     *  uintArgs[10] - txnData.gasPrice\n     *  uintArgs[11] - claimData.requiredDeposit\n     */\n    function initialize(\n        address[4]  addressArgs,\n        uint[12]    uintArgs,\n        bytes       callData\n    )\n        public payable\n    {\n        require(!initialized);\n\n        txnRequest.initialize(addressArgs, uintArgs, callData);\n        initialized = true;\n    }\n\n    /*\n     *  Allow receiving ether.  This is needed if there is a large increase in\n     *  network gas prices.\n     */\n    function() public payable {}\n\n    /*\n     *  Actions\n     */\n    function execute() public returns (bool) {\n        return txnRequest.execute();\n    }\n\n    function cancel() public returns (bool) {\n        return txnRequest.cancel();\n    }\n\n    function claim() public payable returns (bool) {\n        return txnRequest.claim();\n    }\n\n    /*\n     *  Data accessor functions.\n     */\n\n    // Declaring this function `view`, although it creates a compiler warning, is\n    // necessary to return values from it.\n    function requestData()\n        public view returns (address[6], bool[3], uint[15], uint8[1])\n    {\n        return txnRequest.serialize();\n    }\n\n    function callData()\n        public view returns (bytes data)\n    {\n        data = txnRequest.txnData.callData;\n    }\n\n    /**\n     * @dev Proxy a call from this contract to another contract.\n     * This function is only callable by the scheduler and can only\n     * be called after the execution window ends. One purpose is to\n     * provide a way to transfer assets held by this contract somewhere else.\n     * For example, if this request was used to buy tokens during an ICO,\n     * it would become the owner of the tokens and this function would need\n     * to be called with the encoded data to the token contract to transfer\n     * the assets somewhere else. */\n    function proxy(address _to, bytes _data)\n        public payable returns (bool success)\n    {\n        require(txnRequest.meta.owner == msg.sender && txnRequest.schedule.isAfterWindow());\n        \n        /* solium-disable-next-line */\n        return _to.call.value(msg.value)(_data);\n    }\n\n    /*\n     *  Pull based payment functions.\n     */\n    function refundClaimDeposit() public returns (bool) {\n        txnRequest.refundClaimDeposit();\n    }\n\n    function sendFee() public returns (bool) {\n        return txnRequest.sendFee();\n    }\n\n    function sendBounty() public returns (bool) {\n        return txnRequest.sendBounty();\n    }\n\n    function sendOwnerEther() public returns (bool) {\n        return txnRequest.sendOwnerEther();\n    }\n\n    function sendOwnerEther(address recipient) public returns (bool) {\n        return txnRequest.sendOwnerEther(recipient);\n    }\n}\n",
  "sourcePath": "contracts/TransactionRequestCore.sol",
  "compiler": {
    "name": "solc",
    "version": "0.4.21+commit.dfe3193c.Emscripten.clang"
  },
  "schemaVersion": "2.0.0",
  "updatedAt": "2018-05-21T17:42:15.871Z"
}